:100000000C942A000C9434000C9434000C943400AA
:100010000C9434000C9434000C9434000C94340090
:100020000C9434000C9434000C9434000C94340080
:100030000C9434000C9434000C9434000C94340070
:100040000C9434000C9434000C9434000C94340060
:100050000C94340011241FBECFE5D8E0DEBFCDBF25
:100060000E9465000C9472000C94000091E193BF13
:100070008CBF0895413069F4E82FF0E0218181E0E0
:1000800090E002C0880F991F6A95E2F7822B818366
:100090000895E82FF0E0218181E090E002C0880F10
:1000A000991F6A95E2F78095822381830895E82F4E
:1000B000F0E0828121E030E002C0220F331F6A9518
:1000C000E2F7209528232283089541E063E086E348
:1000D0000E943A0063E086E30E94570080E80E9495
:0800E0003600FCCFF894FFCFBD
:00000001FF
